{
  "contractName": "GASContract",
  "abi": [
    {
      "constant": true,
      "inputs": [],
      "name": "getUsers",
      "outputs": [
        {
          "name": "",
          "type": "address[]"
        }
      ],
      "payable": false,
      "stateMutability": "view",
      "type": "function"
    },
    {
      "constant": true,
      "inputs": [],
      "name": "userCount",
      "outputs": [
        {
          "name": "",
          "type": "uint256"
        }
      ],
      "payable": false,
      "stateMutability": "view",
      "type": "function"
    },
    {
      "constant": true,
      "inputs": [
        {
          "name": "_user",
          "type": "address"
        }
      ],
      "name": "userExists",
      "outputs": [
        {
          "name": "",
          "type": "bool"
        }
      ],
      "payable": false,
      "stateMutability": "view",
      "type": "function"
    },
    {
      "constant": true,
      "inputs": [
        {
          "name": "",
          "type": "address"
        }
      ],
      "name": "userMapping",
      "outputs": [
        {
          "name": "userAddress",
          "type": "address"
        },
        {
          "name": "userMetadata",
          "type": "string"
        },
        {
          "name": "userBalance",
          "type": "uint256"
        }
      ],
      "payable": false,
      "stateMutability": "view",
      "type": "function"
    },
    {
      "constant": true,
      "inputs": [
        {
          "name": "_categoryId",
          "type": "uint256"
        }
      ],
      "name": "getVoteCategory",
      "outputs": [
        {
          "name": "",
          "type": "string"
        }
      ],
      "payable": false,
      "stateMutability": "view",
      "type": "function"
    },
    {
      "constant": true,
      "inputs": [
        {
          "name": "_userAddress",
          "type": "address"
        }
      ],
      "name": "getUserActionCount",
      "outputs": [
        {
          "name": "",
          "type": "uint256"
        }
      ],
      "payable": false,
      "stateMutability": "view",
      "type": "function"
    },
    {
      "constant": true,
      "inputs": [
        {
          "name": "_userAddress",
          "type": "address"
        },
        {
          "name": "_actionIndex",
          "type": "uint256"
        }
      ],
      "name": "getUserAction",
      "outputs": [
        {
          "name": "productId",
          "type": "uint256"
        },
        {
          "name": "actionCreator",
          "type": "address"
        },
        {
          "name": "actionMetadata",
          "type": "string"
        }
      ],
      "payable": false,
      "stateMutability": "view",
      "type": "function"
    },
    {
      "constant": true,
      "inputs": [],
      "name": "getProductCount",
      "outputs": [
        {
          "name": "",
          "type": "uint256"
        }
      ],
      "payable": false,
      "stateMutability": "view",
      "type": "function"
    },
    {
      "constant": false,
      "inputs": [
        {
          "name": "_userAddress",
          "type": "address"
        },
        {
          "name": "_userMetadata",
          "type": "string"
        }
      ],
      "name": "addUser",
      "outputs": [],
      "payable": false,
      "stateMutability": "nonpayable",
      "type": "function"
    },
    {
      "constant": true,
      "inputs": [
        {
          "name": "",
          "type": "address"
        }
      ],
      "name": "userAddressLUTPosition",
      "outputs": [
        {
          "name": "",
          "type": "uint256"
        }
      ],
      "payable": false,
      "stateMutability": "view",
      "type": "function"
    },
    {
      "constant": true,
      "inputs": [
        {
          "name": "_productId",
          "type": "uint256"
        },
        {
          "name": "_actionId",
          "type": "uint256"
        },
        {
          "name": "_voteCategory",
          "type": "uint8"
        },
        {
          "name": "_userAddress",
          "type": "address"
        }
      ],
      "name": "getActionVote",
      "outputs": [
        {
          "name": "",
          "type": "uint8"
        }
      ],
      "payable": false,
      "stateMutability": "view",
      "type": "function"
    },
    {
      "constant": true,
      "inputs": [
        {
          "name": "_userAddress",
          "type": "address"
        }
      ],
      "name": "getUser",
      "outputs": [
        {
          "name": "userAddress",
          "type": "address"
        },
        {
          "name": "userMetadata",
          "type": "string"
        },
        {
          "name": "userBalance",
          "type": "uint256"
        }
      ],
      "payable": false,
      "stateMutability": "view",
      "type": "function"
    },
    {
      "constant": false,
      "inputs": [],
      "name": "renounceOwnership",
      "outputs": [],
      "payable": false,
      "stateMutability": "nonpayable",
      "type": "function"
    },
    {
      "constant": false,
      "inputs": [
        {
          "name": "_productId",
          "type": "uint256"
        },
        {
          "name": "_actionId",
          "type": "uint256"
        },
        {
          "name": "_voteCategory",
          "type": "uint8"
        },
        {
          "name": "_value",
          "type": "uint8"
        }
      ],
      "name": "addActionVote",
      "outputs": [],
      "payable": false,
      "stateMutability": "nonpayable",
      "type": "function"
    },
    {
      "constant": true,
      "inputs": [],
      "name": "owner",
      "outputs": [
        {
          "name": "",
          "type": "address"
        }
      ],
      "payable": false,
      "stateMutability": "view",
      "type": "function"
    },
    {
      "constant": true,
      "inputs": [],
      "name": "isOwner",
      "outputs": [
        {
          "name": "",
          "type": "bool"
        }
      ],
      "payable": false,
      "stateMutability": "view",
      "type": "function"
    },
    {
      "constant": false,
      "inputs": [
        {
          "name": "_userAddress",
          "type": "address"
        }
      ],
      "name": "removeUser",
      "outputs": [],
      "payable": false,
      "stateMutability": "nonpayable",
      "type": "function"
    },
    {
      "constant": true,
      "inputs": [
        {
          "name": "_productId",
          "type": "uint256"
        },
        {
          "name": "_actionIndex",
          "type": "uint256"
        }
      ],
      "name": "getProductAction",
      "outputs": [
        {
          "name": "productId",
          "type": "uint256"
        },
        {
          "name": "actionCreator",
          "type": "address"
        },
        {
          "name": "actionMetadata",
          "type": "string"
        }
      ],
      "payable": false,
      "stateMutability": "view",
      "type": "function"
    },
    {
      "constant": true,
      "inputs": [
        {
          "name": "_productId",
          "type": "uint256"
        }
      ],
      "name": "getProductActionCount",
      "outputs": [
        {
          "name": "",
          "type": "uint256"
        }
      ],
      "payable": false,
      "stateMutability": "view",
      "type": "function"
    },
    {
      "constant": false,
      "inputs": [
        {
          "name": "_categoryName",
          "type": "string"
        }
      ],
      "name": "addVoteCategory",
      "outputs": [],
      "payable": false,
      "stateMutability": "nonpayable",
      "type": "function"
    },
    {
      "constant": true,
      "inputs": [
        {
          "name": "",
          "type": "uint256"
        }
      ],
      "name": "usersLUT",
      "outputs": [
        {
          "name": "",
          "type": "address"
        }
      ],
      "payable": false,
      "stateMutability": "view",
      "type": "function"
    },
    {
      "constant": false,
      "inputs": [
        {
          "name": "_actionMetadata",
          "type": "string"
        }
      ],
      "name": "addProduct",
      "outputs": [],
      "payable": false,
      "stateMutability": "nonpayable",
      "type": "function"
    },
    {
      "constant": false,
      "inputs": [
        {
          "name": "newOwner",
          "type": "address"
        }
      ],
      "name": "transferOwnership",
      "outputs": [],
      "payable": false,
      "stateMutability": "nonpayable",
      "type": "function"
    },
    {
      "constant": false,
      "inputs": [
        {
          "name": "_productId",
          "type": "uint256"
        },
        {
          "name": "_actionMetadata",
          "type": "string"
        }
      ],
      "name": "addProductAction",
      "outputs": [],
      "payable": false,
      "stateMutability": "nonpayable",
      "type": "function"
    },
    {
      "constant": true,
      "inputs": [],
      "name": "getVoteCategoriesCount",
      "outputs": [
        {
          "name": "",
          "type": "uint256"
        }
      ],
      "payable": false,
      "stateMutability": "view",
      "type": "function"
    },
    {
      "inputs": [
        {
          "name": "_ownerMetadata",
          "type": "string"
        }
      ],
      "payable": false,
      "stateMutability": "nonpayable",
      "type": "constructor"
    },
    {
      "payable": true,
      "stateMutability": "payable",
      "type": "fallback"
    },
    {
      "anonymous": false,
      "inputs": [
        {
          "indexed": true,
          "name": "_productId",
          "type": "uint256"
        }
      ],
      "name": "ProductAdded",
      "type": "event"
    },
    {
      "anonymous": false,
      "inputs": [
        {
          "indexed": true,
          "name": "previousOwner",
          "type": "address"
        },
        {
          "indexed": true,
          "name": "newOwner",
          "type": "address"
        }
      ],
      "name": "OwnershipTransferred",
      "type": "event"
    },
    {
      "constant": false,
      "inputs": [],
      "name": "withdraw",
      "outputs": [],
      "payable": false,
      "stateMutability": "nonpayable",
      "type": "function"
    },
    {
      "constant": true,
      "inputs": [],
      "name": "currentBalance",
      "outputs": [
        {
          "name": "",
          "type": "uint256"
        }
      ],
      "payable": false,
      "stateMutability": "view",
      "type": "function"
    }
  ],
  "bytecode": "0x60806040523480156200001157600080fd5b50604051620029873803806200298783398101806040528101908080518201929190505050336000806101000a81548173ffffffffffffffffffffffffffffffffffffffff021916908373ffffffffffffffffffffffffffffffffffffffff1602179055506000809054906101000a900473ffffffffffffffffffffffffffffffffffffffff1673ffffffffffffffffffffffffffffffffffffffff16600073ffffffffffffffffffffffffffffffffffffffff167f8be0079c531659141344cd1fd0a4f28419497f9722a3daafe3b4186f6b6457e060405160405180910390a36200010d338262000114640100000000026401000000009004565b5062000479565b6200012d62000315640100000000026401000000009004565b15156200013957600080fd5b60008273ffffffffffffffffffffffffffffffffffffffff161415801562000178575062000176826200036c640100000000026401000000009004565b155b15156200018457600080fd5b6060604051908101604052808373ffffffffffffffffffffffffffffffffffffffff1681526020018281526020016000815250600360008473ffffffffffffffffffffffffffffffffffffffff1673ffffffffffffffffffffffffffffffffffffffff16815260200190815260200160002060008201518160000160006101000a81548173ffffffffffffffffffffffffffffffffffffffff021916908373ffffffffffffffffffffffffffffffffffffffff16021790555060208201518160010190805190602001906200025b929190620003ca565b506040820151816002015590505060018290806001815401808255809150509060018203906000526020600020016000909192909190916101000a81548173ffffffffffffffffffffffffffffffffffffffff021916908373ffffffffffffffffffffffffffffffffffffffff160217905550600260008473ffffffffffffffffffffffffffffffffffffffff1673ffffffffffffffffffffffffffffffffffffffff168152602001908152602001600020819055505050565b60008060009054906101000a900473ffffffffffffffffffffffffffffffffffffffff1673ffffffffffffffffffffffffffffffffffffffff163373ffffffffffffffffffffffffffffffffffffffff1614905090565b600080600260008473ffffffffffffffffffffffffffffffffffffffff1673ffffffffffffffffffffffffffffffffffffffff168152602001908152602001600020541415620003c05760009050620003c5565b600190505b919050565b828054600181600116156101000203166002900490600052602060002090601f016020900481019282601f106200040d57805160ff19168380011785556200043e565b828001600101855582156200043e579182015b828111156200043d57825182559160200191906001019062000420565b5b5090506200044d919062000451565b5090565b6200047691905b808211156200047257600081600090555060010162000458565b5090565b90565b6124fe80620004896000396000f30060806040526004361061015e576000357c0100000000000000000000000000000000000000000000000000000000900463ffffffff168062ce8e3e1461020f57806307973ccf1461027b5780630e666e49146102a6578063118b9535146103015780631663b086146103f757806323fbf46c1461049d57806326bdba1d146104f45780633ccfd60b146105f45780634a348da91461060b5780634b68d431146106365780634ce521e2146106bf5780634e7035e9146107165780636f77926b14610794578063715018a61461088a57806372fd15ce146108a15780638da5cb5b146108f25780638f32d59b1461094957806398575188146109785780639bf6468d146109bb578063c50b7bb014610aa5578063ce845d1d14610ae6578063d14d783914610b11578063dd1e3eab14610b7a578063dfe00c5114610be7578063f2fde38b14610c50578063f68bd35314610c93578063fee9260814610d06575b61016733610d31565b151561017257600080fd5b6101c734600360003373ffffffffffffffffffffffffffffffffffffffff1673ffffffffffffffffffffffffffffffffffffffff16815260200190815260200160002060020154610d8d90919063ffffffff16565b600360003373ffffffffffffffffffffffffffffffffffffffff1673ffffffffffffffffffffffffffffffffffffffff16815260200190815260200160002060020181905550005b34801561021b57600080fd5b50610224610dae565b6040518080602001828103825283818151815260200191508051906020019060200280838360005b8381101561026757808201518184015260208101905061024c565b505050509050019250505060405180910390f35b34801561028757600080fd5b50610290610e3c565b6040518082815260200191505060405180910390f35b3480156102b257600080fd5b506102e7600480360381019080803573ffffffffffffffffffffffffffffffffffffffff169060200190929190505050610d31565b604051808215151515815260200191505060405180910390f35b34801561030d57600080fd5b50610342600480360381019080803573ffffffffffffffffffffffffffffffffffffffff169060200190929190505050610e49565b604051808473ffffffffffffffffffffffffffffffffffffffff1673ffffffffffffffffffffffffffffffffffffffff16815260200180602001838152602001828103825284818151815260200191508051906020019080838360005b838110156103ba57808201518184015260208101905061039f565b50505050905090810190601f1680156103e75780820380516001836020036101000a031916815260200191505b5094505050505060405180910390f35b34801561040357600080fd5b5061042260048036038101908080359060200190929190505050610f2b565b6040518080602001828103825283818151815260200191508051906020019080838360005b83811015610462578082015181840152602081019050610447565b50505050905090810190601f16801561048f5780820380516001836020036101000a031916815260200191505b509250505060405180910390f35b3480156104a957600080fd5b506104de600480360381019080803573ffffffffffffffffffffffffffffffffffffffff169060200190929190505050610ff9565b6040518082815260200191505060405180910390f35b34801561050057600080fd5b5061053f600480360381019080803573ffffffffffffffffffffffffffffffffffffffff16906020019092919080359060200190929190505050611045565b604051808481526020018373ffffffffffffffffffffffffffffffffffffffff1673ffffffffffffffffffffffffffffffffffffffff16815260200180602001828103825283818151815260200191508051906020019080838360005b838110156105b757808201518184015260208101905061059c565b50505050905090810190601f1680156105e45780820380516001836020036101000a031916815260200191505b5094505050505060405180910390f35b34801561060057600080fd5b50610609611279565b005b34801561061757600080fd5b506106206112ec565b6040518082815260200191505060405180910390f35b34801561064257600080fd5b506106bd600480360381019080803573ffffffffffffffffffffffffffffffffffffffff169060200190929190803590602001908201803590602001908080601f01602080910402602001604051908101604052809392919081815260200183838082843782019150505050505091929192905050506112f9565b005b3480156106cb57600080fd5b50610700600480360381019080803573ffffffffffffffffffffffffffffffffffffffff1690602001909291905050506114d3565b6040518082815260200191505060405180910390f35b34801561072257600080fd5b506107786004803603810190808035906020019092919080359060200190929190803560ff169060200190929190803573ffffffffffffffffffffffffffffffffffffffff1690602001909291905050506114eb565b604051808260ff1660ff16815260200191505060405180910390f35b3480156107a057600080fd5b506107d5600480360381019080803573ffffffffffffffffffffffffffffffffffffffff16906020019092919050505061158d565b604051808473ffffffffffffffffffffffffffffffffffffffff1673ffffffffffffffffffffffffffffffffffffffff16815260200180602001838152602001828103825284818151815260200191508051906020019080838360005b8381101561084d578082015181840152602081019050610832565b50505050905090810190601f16801561087a5780820380516001836020036101000a031916815260200191505b5094505050505060405180910390f35b34801561089657600080fd5b5061089f611721565b005b3480156108ad57600080fd5b506108f06004803603810190808035906020019092919080359060200190929190803560ff169060200190929190803560ff1690602001909291905050506117f3565b005b3480156108fe57600080fd5b506109076118d3565b604051808273ffffffffffffffffffffffffffffffffffffffff1673ffffffffffffffffffffffffffffffffffffffff16815260200191505060405180910390f35b34801561095557600080fd5b5061095e6118fc565b604051808215151515815260200191505060405180910390f35b34801561098457600080fd5b506109b9600480360381019080803573ffffffffffffffffffffffffffffffffffffffff169060200190929190505050611953565b005b3480156109c757600080fd5b506109f06004803603810190808035906020019092919080359060200190929190505050611cab565b604051808481526020018373ffffffffffffffffffffffffffffffffffffffff1673ffffffffffffffffffffffffffffffffffffffff16815260200180602001828103825283818151815260200191508051906020019080838360005b83811015610a68578082015181840152602081019050610a4d565b50505050905090810190601f168015610a955780820380516001836020036101000a031916815260200191505b5094505050505060405180910390f35b348015610ab157600080fd5b50610ad060048036038101908080359060200190929190505050611e29565b6040518082815260200191505060405180910390f35b348015610af257600080fd5b50610afb611e68565b6040518082815260200191505060405180910390f35b348015610b1d57600080fd5b50610b78600480360381019080803590602001908201803590602001908080601f0160208091040260200160405190810160405280939291908181526020018383808284378201915050505050509192919290505050611e87565b005b348015610b8657600080fd5b50610ba560048036038101908080359060200190929190505050611edc565b604051808273ffffffffffffffffffffffffffffffffffffffff1673ffffffffffffffffffffffffffffffffffffffff16815260200191505060405180910390f35b348015610bf357600080fd5b50610c4e600480360381019080803590602001908201803590602001908080601f0160208091040260200160405190810160405280939291908181526020018383808284378201915050505050509192919290505050611f1a565b005b348015610c5c57600080fd5b50610c91600480360381019080803573ffffffffffffffffffffffffffffffffffffffff169060200190929190505050611fd9565b005b348015610c9f57600080fd5b50610d0460048036038101908080359060200190929190803590602001908201803590602001908080601f0160208091040260200160405190810160405280939291908181526020018383808284378201915050505050509192919290505050611ff8565b005b348015610d1257600080fd5b50610d1b61227a565b6040518082815260200191505060405180910390f35b600080600260008473ffffffffffffffffffffffffffffffffffffffff1673ffffffffffffffffffffffffffffffffffffffff168152602001908152602001600020541415610d835760009050610d88565b600190505b919050565b6000808284019050838110151515610da457600080fd5b8091505092915050565b60606001805480602002602001604051908101604052809291908181526020018280548015610e3257602002820191906000526020600020905b8160009054906101000a900473ffffffffffffffffffffffffffffffffffffffff1673ffffffffffffffffffffffffffffffffffffffff1681526020019060010190808311610de8575b5050505050905090565b6000600180549050905090565b60036020528060005260406000206000915090508060000160009054906101000a900473ffffffffffffffffffffffffffffffffffffffff1690806001018054600181600116156101000203166002900480601f016020809104026020016040519081016040528092919081815260200182805460018160011615610100020316600290048015610f1b5780601f10610ef057610100808354040283529160200191610f1b565b820191906000526020600020905b815481529060010190602001808311610efe57829003601f168201915b5050505050908060020154905083565b606060048054905082101515610f4057600080fd5b600482815481101515610f4f57fe5b906000526020600020018054600181600116156101000203166002900480601f016020809104026020016040519081016040528092919081815260200182805460018160011615610100020316600290048015610fed5780601f10610fc257610100808354040283529160200191610fed565b820191906000526020600020905b815481529060010190602001808311610fd057829003601f168201915b50505050509050919050565b6000600560008373ffffffffffffffffffffffffffffffffffffffff1673ffffffffffffffffffffffffffffffffffffffff168152602001908152602001600020805490509050919050565b6000806060600560008673ffffffffffffffffffffffffffffffffffffffff1673ffffffffffffffffffffffffffffffffffffffff168152602001908152602001600020805490508410151561109a57600080fd5b600560008673ffffffffffffffffffffffffffffffffffffffff1673ffffffffffffffffffffffffffffffffffffffff168152602001908152602001600020848154811015156110e657fe5b9060005260206000209060050201600001549250600560008673ffffffffffffffffffffffffffffffffffffffff1673ffffffffffffffffffffffffffffffffffffffff1681526020019081526020016000208481548110151561114657fe5b906000526020600020906005020160010160009054906101000a900473ffffffffffffffffffffffffffffffffffffffff169150600560008673ffffffffffffffffffffffffffffffffffffffff1673ffffffffffffffffffffffffffffffffffffffff168152602001908152602001600020848154811015156111c657fe5b90600052602060002090600502016002018054600181600116156101000203166002900480601f01602080910402602001604051908101604052809291908181526020018280546001816001161561010002031660029004801561126b5780601f106112405761010080835404028352916020019161126b565b820191906000526020600020905b81548152906001019060200180831161124e57829003601f168201915b505050505090509250925092565b6112816118fc565b151561128c57600080fd5b3373ffffffffffffffffffffffffffffffffffffffff166108fc3073ffffffffffffffffffffffffffffffffffffffff16319081150290604051600060405180830381858888f193505050501580156112e9573d6000803e3d6000fd5b50565b6000600680549050905090565b6113016118fc565b151561130c57600080fd5b60008273ffffffffffffffffffffffffffffffffffffffff1614158015611339575061133782610d31565b155b151561134457600080fd5b6060604051908101604052808373ffffffffffffffffffffffffffffffffffffffff1681526020018281526020016000815250600360008473ffffffffffffffffffffffffffffffffffffffff1673ffffffffffffffffffffffffffffffffffffffff16815260200190815260200160002060008201518160000160006101000a81548173ffffffffffffffffffffffffffffffffffffffff021916908373ffffffffffffffffffffffffffffffffffffffff1602179055506020820151816001019080519060200190611419929190612381565b506040820151816002015590505060018290806001815401808255809150509060018203906000526020600020016000909192909190916101000a81548173ffffffffffffffffffffffffffffffffffffffff021916908373ffffffffffffffffffffffffffffffffffffffff160217905550600260008473ffffffffffffffffffffffffffffffffffffffff1673ffffffffffffffffffffffffffffffffffffffff168152602001908152602001600020819055505050565b60026020528060005260406000206000915090505481565b60006006858154811015156114fc57fe5b9060005260206000209060030201600201600085815260200190815260200160002060040160008373ffffffffffffffffffffffffffffffffffffffff1673ffffffffffffffffffffffffffffffffffffffff16815260200190815260200160002060008460ff1660ff16815260200190815260200160002060009054906101000a900460ff169050949350505050565b600060606000600360008573ffffffffffffffffffffffffffffffffffffffff1673ffffffffffffffffffffffffffffffffffffffff16815260200190815260200160002060000160009054906101000a900473ffffffffffffffffffffffffffffffffffffffff169250600360008573ffffffffffffffffffffffffffffffffffffffff1673ffffffffffffffffffffffffffffffffffffffff1681526020019081526020016000206001018054600181600116156101000203166002900480601f0160208091040260200160405190810160405280929190818152602001828054600181600116156101000203166002900480156116ce5780601f106116a3576101008083540402835291602001916116ce565b820191906000526020600020905b8154815290600101906020018083116116b157829003601f168201915b50505050509150600360008573ffffffffffffffffffffffffffffffffffffffff1673ffffffffffffffffffffffffffffffffffffffff1681526020019081526020016000206002015490509193909250565b6117296118fc565b151561173457600080fd5b600073ffffffffffffffffffffffffffffffffffffffff166000809054906101000a900473ffffffffffffffffffffffffffffffffffffffff1673ffffffffffffffffffffffffffffffffffffffff167f8be0079c531659141344cd1fd0a4f28419497f9722a3daafe3b4186f6b6457e060405160405180910390a360008060006101000a81548173ffffffffffffffffffffffffffffffffffffffff021916908373ffffffffffffffffffffffffffffffffffffffff160217905550565b6117fc33610d31565b151561180757600080fd5b60058160ff1610801561182157506004805490508260ff16105b151561182c57600080fd5b8060068581548110151561183c57fe5b9060005260206000209060030201600201600085815260200190815260200160002060040160003373ffffffffffffffffffffffffffffffffffffffff1673ffffffffffffffffffffffffffffffffffffffff16815260200190815260200160002060008460ff1660ff16815260200190815260200160002060006101000a81548160ff021916908360ff16021790555050505050565b60008060009054906101000a900473ffffffffffffffffffffffffffffffffffffffff16905090565b60008060009054906101000a900473ffffffffffffffffffffffffffffffffffffffff1673ffffffffffffffffffffffffffffffffffffffff163373ffffffffffffffffffffffffffffffffffffffff1614905090565b61195b6118fc565b151561196657600080fd5b61196f81610d31565b80156119ae575061197e6118d3565b73ffffffffffffffffffffffffffffffffffffffff168173ffffffffffffffffffffffffffffffffffffffff1614155b15156119b957600080fd5b6001806119c4610e3c565b038154811015156119d157fe5b9060005260206000200160009054906101000a900473ffffffffffffffffffffffffffffffffffffffff16600180600260008573ffffffffffffffffffffffffffffffffffffffff1673ffffffffffffffffffffffffffffffffffffffff1681526020019081526020016000205403815481101515611a4c57fe5b9060005260206000200160006101000a81548173ffffffffffffffffffffffffffffffffffffffff021916908373ffffffffffffffffffffffffffffffffffffffff160217905550600260008273ffffffffffffffffffffffffffffffffffffffff1673ffffffffffffffffffffffffffffffffffffffff1681526020019081526020016000205460026000600180611ae3610e3c565b03815481101515611af057fe5b9060005260206000200160009054906101000a900473ffffffffffffffffffffffffffffffffffffffff1673ffffffffffffffffffffffffffffffffffffffff1673ffffffffffffffffffffffffffffffffffffffff168152602001908152602001600020819055506000600260008373ffffffffffffffffffffffffffffffffffffffff1673ffffffffffffffffffffffffffffffffffffffff168152602001908152602001600020819055506001805480919060019003611bb39190612401565b50606060405190810160405280600073ffffffffffffffffffffffffffffffffffffffff168152602001602060405190810160405280600081525081526020016000815250600360008373ffffffffffffffffffffffffffffffffffffffff1673ffffffffffffffffffffffffffffffffffffffff16815260200190815260200160002060008201518160000160006101000a81548173ffffffffffffffffffffffffffffffffffffffff021916908373ffffffffffffffffffffffffffffffffffffffff1602179055506020820151816001019080519060200190611c9a929190612381565b506040820151816002015590505050565b6000806060611cb86112ec565b85101515611cc557600080fd5b600685815481101515611cd457fe5b90600052602060002090600302016002016000858152602001908152602001600020600001549250600685815481101515611d0b57fe5b9060005260206000209060030201600201600085815260200190815260200160002060010160009054906101000a900473ffffffffffffffffffffffffffffffffffffffff169150600685815481101515611d6257fe5b906000526020600020906003020160020160008581526020019081526020016000206002018054600181600116156101000203166002900480601f016020809104026020016040519081016040528092919081815260200182805460018160011615610100020316600290048015611e1b5780601f10611df057610100808354040283529160200191611e1b565b820191906000526020600020905b815481529060010190602001808311611dfe57829003601f168201915b505050505090509250925092565b6000611e336112ec565b82101515611e4057600080fd5b600682815481101515611e4f57fe5b9060005260206000209060030201600101549050919050565b60003073ffffffffffffffffffffffffffffffffffffffff1631905090565b611e8f6118fc565b1515611e9a57600080fd5b6004819080600181540180825580915050906001820390600052602060002001600090919290919091509080519060200190611ed792919061242d565b505050565b600181815481101515611eeb57fe5b906000526020600020016000915054906101000a900473ffffffffffffffffffffffffffffffffffffffff1681565b611f2333610d31565b1515611f2e57600080fd5b6006604080519081016040528060068054905081526020016000815250908060018154018082558091505090600182039060005260206000209060030201600090919290919091506000820151816000015560208201518160010155505050611f9f60016006805490500382611ff8565b6001611fa96112ec565b037f4fc9d5acc453e78e01b205af5788a1c62f195c4b5cdc8eb8f1c670863b7e736a60405160405180910390a250565b611fe16118fc565b1515611fec57600080fd5b611ff581612287565b50565b600061200333610d31565b151561200e57600080fd5b6006805490508310151561202157600080fd5b60068381548110151561203057fe5b90600052602060002090600302016001015490506080604051908101604052808481526020013373ffffffffffffffffffffffffffffffffffffffff1681526020018381526020014281525060068481548110151561208b57fe5b906000526020600020906003020160020160008381526020019081526020016000206000820151816000015560208201518160010160006101000a81548173ffffffffffffffffffffffffffffffffffffffff021916908373ffffffffffffffffffffffffffffffffffffffff160217905550604082015181600201908051906020019061211a929190612381565b506060820151816003015590505060068381548110151561213757fe5b906000526020600020906003020160010160008154809291906001019190505550600560003373ffffffffffffffffffffffffffffffffffffffff1673ffffffffffffffffffffffffffffffffffffffff1681526020019081526020016000206080604051908101604052808581526020013373ffffffffffffffffffffffffffffffffffffffff16815260200184815260200142815250908060018154018082558091505090600182039060005260206000209060050201600090919290919091506000820151816000015560208201518160010160006101000a81548173ffffffffffffffffffffffffffffffffffffffff021916908373ffffffffffffffffffffffffffffffffffffffff1602179055506040820151816002019080519060200190612267929190612381565b5060608201518160030155505050505050565b6000600480549050905090565b600073ffffffffffffffffffffffffffffffffffffffff168173ffffffffffffffffffffffffffffffffffffffff16141515156122c357600080fd5b8073ffffffffffffffffffffffffffffffffffffffff166000809054906101000a900473ffffffffffffffffffffffffffffffffffffffff1673ffffffffffffffffffffffffffffffffffffffff167f8be0079c531659141344cd1fd0a4f28419497f9722a3daafe3b4186f6b6457e060405160405180910390a3806000806101000a81548173ffffffffffffffffffffffffffffffffffffffff021916908373ffffffffffffffffffffffffffffffffffffffff16021790555050565b828054600181600116156101000203166002900490600052602060002090601f016020900481019282601f106123c257805160ff19168380011785556123f0565b828001600101855582156123f0579182015b828111156123ef5782518255916020019190600101906123d4565b5b5090506123fd91906124ad565b5090565b8154818355818111156124285781836000526020600020918201910161242791906124ad565b5b505050565b828054600181600116156101000203166002900490600052602060002090601f016020900481019282601f1061246e57805160ff191683800117855561249c565b8280016001018555821561249c579182015b8281111561249b578251825591602001919060010190612480565b5b5090506124a991906124ad565b5090565b6124cf91905b808211156124cb5760008160009055506001016124b3565b5090565b905600a165627a7a72305820e86a5e44087d1597995ea83cb98953fff895939a07ccfb3d0ace72c5ea846fee0029",
  "source": "pragma solidity ^0.4.24;\n\nimport \"./ProductManager.sol\";\nimport \"./SafeMath.sol\";\n\n\ncontract GASContract is ProductManager {\n    using SafeMath for uint;\n\n    constructor(string _ownerMetadata) {\n        addUser(msg.sender, _ownerMetadata);\n    }\n\n    function()\n        public\n        payable\n        onlyUser\n    {\n        userMapping[msg.sender].userBalance = userMapping[msg.sender].userBalance.add(msg.value);\n    }\n\n    function withdraw()\n        public\n        onlyOwner\n    {\n        msg.sender.transfer(this.balance);\n    }\n\n    function currentBalance()\n        public\n        constant\n        returns(uint)\n    {\n        return this.balance;\n    }\n}\n",
  "sourcePath": "/Users/matteo/repo/hackathon/eth/contracts/GASContract.sol",
  "compiler": {
    "name": "solc",
    "version": "0.4.24+commit.e67f0147.Emscripten.clang"
  },
  "schemaVersion": "2.0.1",
  "updatedAt": "2018-10-20T22:30:56.957Z"
}